{
  "contractName": "WalletContract",
  "abi": [
    {
      "inputs": [],
      "stateMutability": "nonpayable",
      "type": "constructor"
    },
    {
      "inputs": [
        {
          "internalType": "address",
          "name": "",
          "type": "address"
        }
      ],
      "name": "allowances",
      "outputs": [
        {
          "internalType": "uint256",
          "name": "",
          "type": "uint256"
        }
      ],
      "stateMutability": "view",
      "type": "function",
      "constant": true
    },
    {
      "inputs": [],
      "name": "owner",
      "outputs": [
        {
          "internalType": "address",
          "name": "",
          "type": "address"
        }
      ],
      "stateMutability": "view",
      "type": "function",
      "constant": true
    },
    {
      "inputs": [],
      "name": "getOwner",
      "outputs": [
        {
          "internalType": "address",
          "name": "",
          "type": "address"
        }
      ],
      "stateMutability": "view",
      "type": "function",
      "constant": true
    },
    {
      "inputs": [],
      "name": "addFunds",
      "outputs": [],
      "stateMutability": "payable",
      "type": "function",
      "payable": true
    },
    {
      "inputs": [],
      "name": "getBalance",
      "outputs": [
        {
          "internalType": "uint256",
          "name": "",
          "type": "uint256"
        }
      ],
      "stateMutability": "view",
      "type": "function",
      "constant": true
    },
    {
      "inputs": [
        {
          "internalType": "address",
          "name": "_address",
          "type": "address"
        },
        {
          "internalType": "uint256",
          "name": "_value",
          "type": "uint256"
        }
      ],
      "name": "addAllowances",
      "outputs": [],
      "stateMutability": "nonpayable",
      "type": "function"
    },
    {
      "inputs": [
        {
          "internalType": "uint256",
          "name": "_amount",
          "type": "uint256"
        }
      ],
      "name": "withdrawFunds",
      "outputs": [],
      "stateMutability": "nonpayable",
      "type": "function"
    }
  ],
  "bytecode": "0x608060405234801561001057600080fd5b50336000806101000a81548173ffffffffffffffffffffffffffffffffffffffff021916908373ffffffffffffffffffffffffffffffffffffffff16021790555061092e806100606000396000f3fe6080604052600436106100705760003560e01c8063893d20e81161004e578063893d20e8146101065780638da5cb5b14610131578063a26759cb1461015c578063e8c7975a1461016657610070565b806312065fe014610075578063155dd5ee146100a05780632b603c71146100c9575b600080fd5b34801561008157600080fd5b5061008a61018f565b6040516100979190610556565b60405180910390f35b3480156100ac57600080fd5b506100c760048036038101906100c291906105a2565b610197565b005b3480156100d557600080fd5b506100f060048036038101906100eb919061062d565b6103ee565b6040516100fd9190610556565b60405180910390f35b34801561011257600080fd5b5061011b610406565b6040516101289190610669565b60405180910390f35b34801561013d57600080fd5b5061014661042f565b6040516101539190610669565b60405180910390f35b610164610453565b005b34801561017257600080fd5b5061018d60048036038101906101889190610684565b610455565b005b600047905090565b60008054906101000a900473ffffffffffffffffffffffffffffffffffffffff1673ffffffffffffffffffffffffffffffffffffffff163373ffffffffffffffffffffffffffffffffffffffff161415610281576101f361018f565b811115610235576040517f08c379a000000000000000000000000000000000000000000000000000000000815260040161022c90610721565b60405180910390fd5b3373ffffffffffffffffffffffffffffffffffffffff166108fc829081150290604051600060405180830381858888f1935050505015801561027b573d6000803e3d6000fd5b506103eb565b80600160003373ffffffffffffffffffffffffffffffffffffffff1673ffffffffffffffffffffffffffffffffffffffff168152602001908152602001600020541015610303576040517f08c379a00000000000000000000000000000000000000000000000000000000081526004016102fa9061078d565b60405180910390fd5b61030b61018f565b81111561034d576040517f08c379a000000000000000000000000000000000000000000000000000000000815260040161034490610721565b60405180910390fd5b3373ffffffffffffffffffffffffffffffffffffffff166108fc829081150290604051600060405180830381858888f19350505050158015610393573d6000803e3d6000fd5b5080600160003373ffffffffffffffffffffffffffffffffffffffff1673ffffffffffffffffffffffffffffffffffffffff16815260200190815260200160002060008282546103e391906107dc565b925050819055505b50565b60016020528060005260406000206000915090505481565b60008060009054906101000a900473ffffffffffffffffffffffffffffffffffffffff16905090565b60008054906101000a900473ffffffffffffffffffffffffffffffffffffffff1681565b565b60008054906101000a900473ffffffffffffffffffffffffffffffffffffffff1673ffffffffffffffffffffffffffffffffffffffff163373ffffffffffffffffffffffffffffffffffffffff16146104e3576040517f08c379a00000000000000000000000000000000000000000000000000000000081526004016104da90610882565b60405180910390fd5b80600160008473ffffffffffffffffffffffffffffffffffffffff1673ffffffffffffffffffffffffffffffffffffffff168152602001908152602001600020600082825461053291906108a2565b925050819055505050565b6000819050919050565b6105508161053d565b82525050565b600060208201905061056b6000830184610547565b92915050565b600080fd5b61057f8161053d565b811461058a57600080fd5b50565b60008135905061059c81610576565b92915050565b6000602082840312156105b8576105b7610571565b5b60006105c68482850161058d565b91505092915050565b600073ffffffffffffffffffffffffffffffffffffffff82169050919050565b60006105fa826105cf565b9050919050565b61060a816105ef565b811461061557600080fd5b50565b60008135905061062781610601565b92915050565b60006020828403121561064357610642610571565b5b600061065184828501610618565b91505092915050565b610663816105ef565b82525050565b600060208201905061067e600083018461065a565b92915050565b6000806040838503121561069b5761069a610571565b5b60006106a985828601610618565b92505060206106ba8582860161058d565b9150509250929050565b600082825260208201905092915050565b7f4c696d6974206578636565646564000000000000000000000000000000000000600082015250565b600061070b600e836106c4565b9150610716826106d5565b602082019050919050565b6000602082019050818103600083015261073a816106fe565b9050919050565b7f4e6f7420616c6c6f776564000000000000000000000000000000000000000000600082015250565b6000610777600b836106c4565b915061078282610741565b602082019050919050565b600060208201905081810360008301526107a68161076a565b9050919050565b7f4e487b7100000000000000000000000000000000000000000000000000000000600052601160045260246000fd5b60006107e78261053d565b91506107f28361053d565b925082821015610805576108046107ad565b5b828203905092915050565b7f4e6f7420616c6c6f7765643a20796f7520617265206e6f7420746865206f776e60008201527f6572000000000000000000000000000000000000000000000000000000000000602082015250565b600061086c6022836106c4565b915061087782610810565b604082019050919050565b6000602082019050818103600083015261089b8161085f565b9050919050565b60006108ad8261053d565b91506108b88361053d565b9250827fffffffffffffffffffffffffffffffffffffffffffffffffffffffffffffffff038211156108ed576108ec6107ad565b5b82820190509291505056fea2646970667358221220b5ccb02fdfbec5c6eae13ad538d8077e415665a4e33c2703a128f4172e29805c64736f6c63430008090033",
  "immutableReferences": {},
  "source": "// SPDX-License-Identifier: MIT\r\npragma solidity ^0.8.9;\r\n\r\ncontract WalletContract {\r\n    \r\n    address public  owner;\r\n    mapping(address => uint) public allowances;\r\n    \r\n    constructor() {\r\n        owner = msg.sender;\r\n    }\r\n    \r\n    function getOwner() public view returns(address) {\r\n        return owner;\r\n    }\r\n    \r\n    modifier onlyOwner {\r\n        require(msg.sender == owner, \"Not allowed: you are not the owner\");\r\n        _;\r\n    }\r\n    \r\n    function addFunds() public payable {\r\n        \r\n    }\r\n    \r\n    function getBalance() public view returns(uint) {\r\n        return address(this).balance;\r\n    }\r\n    \r\n    function addAllowances(address _address, uint _value) public onlyOwner {\r\n        allowances[_address] += _value;\r\n    }\r\n    \r\n    function withdrawFunds(uint _amount) public {\r\n        if(msg.sender == owner) {\r\n            require(_amount <= getBalance(), \"Limit exceeded\");\r\n            payable(msg.sender).transfer(_amount);\r\n            \r\n        } else {\r\n            require(allowances[msg.sender] >= _amount, \"Not allowed\");\r\n            require(_amount <= getBalance(), \"Limit exceeded\");\r\n            payable(msg.sender).transfer(_amount);\r\n            allowances[msg.sender] -= _amount;\r\n        }\r\n        \r\n    }\r\n}",
  "sourcePath": "C:\\Users\\damia\\desktop\\SharedWallet\\contracts\\WalletContract.sol",
  "compiler": {
    "name": "solc",
    "version": "0.8.9+commit.e5eed63a.Emscripten.clang"
  },
  "schemaVersion": "3.4.3",
  "updatedAt": "2021-11-10T08:38:36.299Z",
  "networkType": "ethereum",
  "devdoc": {
    "kind": "dev",
    "methods": {},
    "version": 1
  },
  "userdoc": {
    "kind": "user",
    "methods": {},
    "version": 1
  }
}